{"abi":[{"type":"function","name":"BPS","inputs":[],"outputs":[{"name":"","type":"uint256","internalType":"uint256"}],"stateMutability":"view"},{"type":"function","name":"MAX_FEE","inputs":[],"outputs":[{"name":"","type":"uint256","internalType":"uint256"}],"stateMutability":"view"},{"type":"function","name":"MIN_FEE","inputs":[],"outputs":[{"name":"","type":"uint256","internalType":"uint256"}],"stateMutability":"view"},{"type":"function","name":"WAD","inputs":[],"outputs":[{"name":"","type":"uint256","internalType":"uint256"}],"stateMutability":"view"},{"type":"function","name":"afterInitialize","inputs":[{"name":"initialX","type":"uint256","internalType":"uint256"},{"name":"initialY","type":"uint256","internalType":"uint256"}],"outputs":[{"name":"","type":"uint256","internalType":"uint256"},{"name":"","type":"uint256","internalType":"uint256"}],"stateMutability":"nonpayable"},{"type":"function","name":"afterSwap","inputs":[{"name":"trade","type":"tuple","internalType":"struct TradeInfo","components":[{"name":"isBuy","type":"bool","internalType":"bool"},{"name":"amountX","type":"uint256","internalType":"uint256"},{"name":"amountY","type":"uint256","internalType":"uint256"},{"name":"timestamp","type":"uint256","internalType":"uint256"},{"name":"reserveX","type":"uint256","internalType":"uint256"},{"name":"reserveY","type":"uint256","internalType":"uint256"}]}],"outputs":[{"name":"","type":"uint256","internalType":"uint256"},{"name":"","type":"uint256","internalType":"uint256"}],"stateMutability":"nonpayable"},{"type":"function","name":"getName","inputs":[],"outputs":[{"name":"","type":"string","internalType":"string"}],"stateMutability":"pure"},{"type":"function","name":"slots","inputs":[{"name":"","type":"uint256","internalType":"uint256"}],"outputs":[{"name":"","type":"uint256","internalType":"uint256"}],"stateMutability":"view"}],"bytecode":{"object":"0x608060405234601c57600e6020565b612b7f61002b8239612b7f90f35b6026565b60405190565b5f80fdfe60c06040526004361015610013575b6105a2565b61001d5f3561009c565b806317d7de7c14610097578063249d39e914610092578063387dd9e91461008d5780636a1460241461008857806376c7a3c714610083578063837aef471461007e578063bc063e1a146100795763c2babb570361000e5761056c565b610502565b610439565b6103b4565b610349565b6102d6565b6101c3565b61012a565b60e01c90565b60405190565b5f80fd5b5f80fd5b5f9103126100ba57565b6100ac565b5190565b60209181520190565b90825f9392825e0152565b601f801991011690565b61010061010960209361010e936100f7816100bf565b938480936100c3565b958691016100cc565b6100d7565b0190565b6101279160208201915f8184039101526100e1565b90565b3461015a5761013a3660046100b0565b610156610145610682565b61014d6100a2565b91829182610112565b0390f35b6100a8565b90565b90565b90565b61017c6101776101819261015f565b610165565b610162565b90565b610193655af3107a4000610168565b90565b61019e610184565b90565b6101aa90610162565b9052565b91906101c1905f602085019401906101a1565b565b346101f3576101d33660046100b0565b6101ef6101de610196565b6101e66100a2565b918291826101ae565b0390f35b6100a8565b61020181610162565b0361020857565b5f80fd5b90503590610219826101f8565b565b9060208282031261023457610231915f0161020c565b90565b6100ac565b634e487b7160e01b5f52603260045260245ffd5b50602090565b90565b61025f8161024d565b82101561027957610271600191610253565b910201905f90565b610239565b1c90565b90565b61029590600861029a930261027e565b610282565b90565b906102a89154610285565b90565b5f6102b58161024d565b8210156102d2576102cf916102c991610256565b9061029d565b90565b5f80fd5b34610306576103026102f16102ec36600461021b565b6102ab565b6102f96100a2565b918291826101ae565b0390f35b6100a8565b90565b61032261031d6103279261030b565b610165565b610162565b90565b61033b670de0b6b3a764000061030e565b90565b61034661032a565b90565b34610379576103593660046100b0565b61037561036461033e565b61036c6100a2565b918291826101ae565b0390f35b6100a8565b90565b61039561039061039a9261037e565b610165565b610162565b90565b6103a65f610381565b90565b6103b161039d565b90565b346103e4576103c43660046100b0565b6103e06103cf6103a9565b6103d76100a2565b918291826101ae565b0390f35b6100a8565b9190604083820312610411578061040561040e925f860161020c565b9360200161020c565b90565b6100ac565b91602061043792949361043060408201965f8301906101a1565b01906101a1565b565b3461046b5761045261044c3660046103e9565b906107f2565b9061046761045e6100a2565b92839283610416565b0390f35b6100a8565b90565b61048761048261048c92610470565b610165565b610162565b90565b634e487b7160e01b5f52601260045260245ffd5b634e487b7160e01b5f52601160045260245ffd5b6104c36104c991610162565b91610162565b9081156104d4570490565b61048f565b6104f46104e461032a565b6104ee600a610473565b906104b7565b90565b6104ff6104d9565b90565b34610532576105123660046100b0565b61052e61051d6104f7565b6105256100a2565b918291826101ae565b0390f35b6100a8565b5f80fd5b908160c09103126105495790565b610537565b9060c08282031261056757610564915f0161053b565b90565b6100ac565b3461059d5761058461057f36600461054e565b611337565b906105996105906100a2565b92839283610416565b0390f35b6100a8565b5f80fd5b606090565b634e487b7160e01b5f52604160045260245ffd5b906105c9906100d7565b810190811067ffffffffffffffff8211176105e357604052565b6105ab565b906105fb6105f46100a2565b92836105bf565b565b67ffffffffffffffff811161061b576106176020916100d7565b0190565b6105ab565b9061063261062d836105fd565b6105e8565b918252565b5f7f746f7869636974795f616e645f61637469766974795f6d6f645f763238330000910152565b610668601e610620565b9061067560208301610637565b565b61067f61065e565b90565b61068a6105a6565b50610693610677565b90565b5f90565b90565b6106b16106ac6106b69261069a565b610165565b610162565b90565b6106c86106ce91939293610162565b92610162565b916106da838202610162565b9281840414901517156106e957565b6104a3565b61070960036107046106fe610184565b9161069d565b6106b9565b90565b1b90565b9190600861072b9102916107255f198461070c565b9261070c565b9181191691161790565b61074961074461074e92610162565b610165565b610162565b90565b90565b919061076a61076561077293610735565b610751565b908354610710565b9055565b90565b61078d61078861079292610776565b610165565b610162565b90565b90565b6107ac6107a76107b192610795565b610165565b610162565b90565b90565b6107cb6107c66107d0926107b4565b610165565b610162565b90565b90565b6107ea6107e56107ef926107d3565b610165565b610162565b90565b906107fb610696565b50610804610696565b506108216108106106ee565b61081b5f5f90610256565b90610754565b61083e61082c6106ee565b6108385f600190610256565b90610754565b61085c61084a5f610381565b6108565f600290610256565b90610754565b61087961086761032a565b6108735f600390610256565b90610754565b6108976108855f610381565b6108915f600490610256565b90610754565b816108aa6108a45f610381565b91610162565b115f14610991576108d1916108be916126aa565b5b6108cb5f600590610256565b90610754565b6108f66108e4660360051c896000610798565b6108f05f600690610256565b90610754565b61091c61090a670b1a2bc2ec5000006107b7565b6109165f600790610256565b90610754565b61094161092f66071afd498d00006107d6565b61093b5f600890610256565b90610754565b61095f61094d5f610381565b6109595f600990610256565b90610754565b61097d61096b5f610381565b6109775f600a90610256565b90610754565b6109856106ee565b9061098e6106ee565b90565b50506108d16109b160646109ac6109a661032a565b91610779565b6106b9565b6108bf565b356109c0816101f8565b90565b6109d26109d891939293610162565b92610162565b82039182116109e357565b6104a3565b90565b6109ff6109fa610a04926109e8565b610165565b610162565b90565b610a1160086109eb565b90565b90565b610a2b610a26610a3092610a14565b610165565b610162565b90565b610a44670bcbce7f1b150000610a17565b90565b90565b610a5e610a59610a6392610a47565b610165565b610162565b90565b610a776709b6e64a8ec60000610a4a565b90565b90565b610a91610a8c610a9692610a7a565b610165565b610162565b90565b610aaa670853a0d2313c0000610a7d565b90565b90565b610ac4610abf610ac992610aad565b610165565b610162565b90565b610add670c7d713b49da0000610ab0565b90565b90565b610af7610af2610afc92610ae0565b610165565b610162565b90565b610b1a6005610b15610b0f61032a565b91610ae3565b6106b9565b90565b90565b610b34610b2f610b3992610b1d565b610165565b610162565b90565b610b4d670dcb65bbcabd0000610b20565b90565b610b5f610b6591939293610162565b92610162565b8201809211610b7057565b6104a3565b151590565b610b8381610b75565b03610b8a57565b5f80fd5b35610b9881610b7a565b90565b610bb6610ba661032a565b610bb06005610ae3565b906104b7565b90565b90565b610bd0610bcb610bd592610bb9565b610165565b610162565b90565b610bf4610be361032a565b610bee610168610bbc565b906104b7565b90565b90565b610c0e610c09610c1392610bf7565b610165565b610162565b90565b610c26666a94d74f430000610bfa565b90565b90565b610c40610c3b610c4592610c29565b610165565b610162565b90565b610c596701aa535d3d0c0000610c2c565b90565b90565b610c73610c6e610c7892610c5c565b610165565b610162565b90565b610c8c670ddd2935029d8000610c5f565b90565b90565b610ca6610ca1610cab92610c8f565b610165565b610162565b90565b610cbf6704b7ec32d7a20000610c92565b90565b610cdd610ccd61032a565b610cd7600a610473565b906104b7565b90565b90565b610cf7610cf2610cfc92610ce0565b610165565b610162565b90565b610d10670905438e60010000610ce3565b90565b90565b610d2a610d25610d2f92610d13565b610165565b610162565b90565b610d4e610d3d61032a565b610d486102bc610d16565b906104b7565b90565b90565b610d68610d63610d6d92610d51565b610165565b610162565b90565b610d7a6001610d54565b90565b90565b610d94610d8f610d9992610d7d565b610165565b610162565b90565b90565b610db3610dae610db892610d9c565b610165565b610162565b90565b90565b610dd2610dcd610dd792610dbb565b610165565b610162565b90565b610deb670dc7d83d25f68000610dbe565b90565b610dff670b1a2bc2ec5000006107b7565b90565b610e1d610e0d61032a565b610e176005610ae3565b906104b7565b90565b90565b610e37610e32610e3c92610e20565b610165565b610162565b90565b610e5067016345785d8a0000610e23565b90565b90565b610e6a610e65610e6f92610e53565b610165565b610162565b90565b610e8d600c610e88610e82610184565b91610e56565b6106b9565b90565b90565b610ea7610ea2610eac92610e90565b610165565b610162565b90565b610ecb614a38610ec6610ec0610184565b91610e93565b6106b9565b90565b90565b610ee5610ee0610eea92610ece565b610165565b610162565b90565b610f0860a0610f03610efd610184565b91610ed1565b6106b9565b90565b90565b610f22610f1d610f2792610f0b565b610165565b610162565b90565b610f4560b4610f40610f3a610184565b91610f0e565b6106b9565b90565b90565b610f5f610f5a610f6492610f48565b610165565b610162565b90565b610f78670b6139a7cbd20000610f4b565b90565b90565b610f92610f8d610f9792610f7b565b610165565b610162565b90565b610fab670d2f13f7789f0000610f7e565b90565b90565b610fc5610fc0610fca92610fae565b610165565b610162565b90565b610fdd660aa87bee538000610fb1565b90565b90565b610ff7610ff2610ffc92610fe0565b610165565b610162565b90565b61101b61a410611016611010610184565b91610fe3565b6106b9565b90565b90565b61103561103061103a9261101e565b610165565b610162565b90565b61104e670ad31dde0cce0000611021565b90565b90565b61106861106361106d92611051565b610165565b610162565b90565b6110816702c68af0bb140000611054565b90565b61109f600c61109a611094610184565b91610e56565b6106b9565b90565b90565b6110b96110b46110be926110a2565b610165565b610162565b90565b6110dd611a906110d86110d2610184565b916110a5565b6106b9565b90565b90565b6110f76110f26110fc926110e0565b610165565b610162565b90565b611110670f8b0a10e47000006110e3565b90565b90565b61112a61112561112f92611113565b610165565b610162565b90565b61114e610140611149611143610184565b91611116565b6106b9565b90565b90565b61116861116361116d92611151565b610165565b610162565b90565b61118b60dc611186611180610184565b91611154565b6106b9565b90565b90565b6111a56111a06111aa9261118e565b610165565b610162565b90565b6111be670d0b8d0508de0000611191565b90565b90565b6111d86111d36111dd926111c1565b610165565b610162565b90565b6111f1670fd217f5c3f200006111c4565b90565b5f90565b90565b61120f61120a611214926111f8565b610165565b610162565b90565b611232605a61122d611227610184565b916111fb565b6106b9565b90565b90565b61124c61124761125192611235565b610165565b610162565b90565b61126f601461126a611264610184565b91611238565b6106b9565b90565b90565b61128961128461128e92611272565b610165565b610162565b90565b6112ad611af46112a86112a2610184565b91611275565b6106b9565b90565b6112c1670c7d713b49da0000610ab0565b90565b90565b6112db6112d66112e0926112c4565b610165565b610162565b90565b6112f4670d529ae9e86000006112c7565b90565b611308670b6139a7cbd20000610f4b565b90565b90565b61132261131d6113279261130b565b610165565b610162565b90565b611334604061130e565b90565b90611340610696565b50611349610696565b5061135e6113585f5f90610256565b9061029d565b61137361136d5f600190610256565b9061029d565b6113886113825f600290610256565b9061029d565b9361139e6113985f600390610256565b9061029d565b916113b46113ae5f600490610256565b9061029d565b6113c96113c35f600590610256565b9061029d565b906113df6113d95f600690610256565b9061029d565b946113f56113ef5f600790610256565b9061029d565b60805261140d6114075f600890610256565b9061029d565b60a05261142561141f5f600990610256565b9061029d565b9361143b6114355f600a90610256565b9061029d565b99611448606088016109b6565b61145a61145483610162565b91610162565b11612505575b508961147461146e5f610381565b91610162565b1497611482608088016109b6565b61149461148e5f610381565b91610162565b115f146124fe576114bc6114aa60a089016109b6565b6114b660808a016109b6565b906126aa565b915b856114d16114cb5f610381565b91610162565b146124f5575b6114e25f8901610b8e565b5f146124ee57505b806115046114fe6114f961032a565b610162565b91610162565b105f146124df5761151c9061151761032a565b6109c3565b5b611525610696565b50806115396115335f610381565b91610162565b145f146124ae575080945b61155060a088016109b6565b61156261155c5f610381565b91610162565b115f146124a05761158a611578604089016109b6565b61158460a08a016109b6565b906126aa565b5b95866115a66115a061159b610b9b565b610162565b91610162565b11612490575b898061246e575b996122b2575b508390809160a0519160805198806115e06115da6115d5610d32565b610162565b91610162565b116120a5575b5061167a61177891896116016115fb5f610381565b91610162565b115f146120975761161d611616888c90612899565b8b906126aa565b5b908161163961163361162e610e02565b610162565b91610162565b1161207e575b6116546116749161164e610e3f565b90612872565b9161166e61166061032a565b611668610e3f565b906109c3565b90612872565b90610b50565b986116878a958d90612966565b926116928d87612966565b93806116ad6116a76116a2610e72565b610162565b91610162565b115f1461206d576116e26116c9826116c3610e72565b906109c3565b5b6116dc6116d5610eaf565b9180612872565b90612872565b806116fc6116f66116f1610eed565b610162565b91610162565b11612056575b61172061172e9161171b611714610f2a565b8590612872565b610b50565b611728610f67565b90612872565b956117385f610381565b9361175261174c611747610f9a565b610162565b91610162565b10159081612033575b509081612011575b50611ff9575b5061177261103d565b90612872565b6117e28b6117dc6117ce6117b461179460805160a05190612872565b936117ae6117a06106ee565b916117a9611070565b612872565b90610b50565b6117c86117bf611084565b60805190612872565b90610b50565b916117d76110c1565b612872565b90610b50565b91806117fd6117f76117f2610e72565b610162565b91610162565b115f14611feb5761181681611810610e72565b906109c3565b5b611833611822610eaf565b61182d838490612872565b90612872565b8061184d611847611842610eed565b610162565b91610162565b11611fd4575b6118716119419161186c611865610f2a565b8690612872565b610b50565b9361189661188786611881610f67565b90612872565b956118906110ff565b90612872565b806118a96118a388610162565b91610162565b115f14611fc5576118bb9086906109c3565b5b936118c65f610381565b906080516118e36118dd6118d8610f9a565b610162565b91610162565b101580611fa1575b9081611f7f575b50611f62575b8061190e61193b9261190861103d565b90612872565b908061192261191c84610162565b91610162565b115f14611f53576119349082906109c3565b5b96610b50565b96610b50565b908561195561194f84610162565b91610162565b115f14611ed957506119688582906109c3565b61198161197b611976611170565b610162565b91610162565b11611eb8575b5090611993915b610b50565b9a8b6119a76119a15f610381565b91610162565b11611e79575b50906119b891610b50565b906119c1610696565b506119ca6111f4565b50836119e56119df6119da61032a565b610162565b91610162565b10155f14611e5c576119ff846119f961032a565b906109c3565b91611a3c6001935b611a36611a1c611a15611217565b8390612872565b91611a30611a28611254565b918790612872565b90612872565b90610b50565b92611a45610696565b50611a4e610696565b505f14611e1357611a60818490610b50565b9281611a74611a6e83610162565b91610162565b115f14611e0357611a84916109c3565b5b995b80611a9a611a945f610381565b91610162565b11611dc2575b50611aa9611291565b611abb611ab55f610381565b91610162565b11611cfa575b50611b27915080611ada611ad48b610162565b91610162565b115f14611c6b57611b10611b01611afc611b1593611af66112f7565b90612a7a565b612ad8565b99611b0a6112e3565b90612a7a565b612ad8565b995b611b216001610d54565b90610b50565b94898887611b44611b3e611b3961132a565b610162565b91610162565b11611c4d575b611bf594611bbf611c499a95611bad611b9b6060611be398611b95611c379e9d99611b83611bd19a611b7d5f5f90610256565b90610754565b611b8f5f600190610256565b90610754565b016109b6565b611ba75f600290610256565b90610754565b611bb95f600390610256565b90610754565b611bcb5f600490610256565b90610754565b611bdd5f600590610256565b90610754565b611bef5f600690610256565b90610754565b611c0d608051611c075f600790610256565b90610754565b611c2560a051611c1f5f600890610256565b90610754565b611c315f600990610256565b90610754565b611c435f600a90610256565b90610754565b9190565b9650909296919493611c5d61132a565b969793919094959297611b4a565b88611c7e611c7883610162565b91610162565b115f14611cc057611cb4611ca5611ca0611cb993611c9a6112e3565b90612a7a565b612ad8565b99611cae6112f7565b90612a7a565b612ad8565b995b611b17565b611cef611ce0611cdb611cf493611cd56112b0565b90612a7a565b612ad8565b99611ce96112b0565b90612a7a565b612ad8565b99611cbb565b611d0b90611d06611291565b612872565b91611d1e611d1887610162565b91610162565b10155f14611d7557611d31908290610b50565b9780611d45611d3f84610162565b91610162565b115f14611d6257611b2791611d59916109c3565b5b975b5f611ac1565b5050611b27611d705f610381565b611d5a565b97611d81908290610b50565b9780611d95611d8f84610162565b91610162565b115f14611daf57611b2791611da9916109c3565b5b611d5c565b5050611b27611dbd5f610381565b611daa565b909183611dd7611dd189610162565b91610162565b10155f14611df15790611de991610b50565b905b5f611aa0565b919990611dfd91610b50565b98611deb565b5050611e0e5f610381565b611a85565b611e21819b939b8c90610b50565b9a81611e35611e2f83610162565b91610162565b115f14611e4c57611e45916109c3565b5b91611a87565b5050611e575f610381565b611e46565b611e6e611e6761032a565b85906109c3565b91611a3c5f93611a07565b9a6119b892919b5f14611ea157611e9890611e926111e0565b90612872565b5b9a90916119ad565b611eb390611ead6111ad565b90612872565b611e99565b61199392919450611ed190611ecb611170565b90610b50565b939091611987565b611ee48287906109c3565b90611ef7611ef15f610381565b91610162565b119081611f31575b50611f10575b50906119939161198e565b61199392919450611f2990611f23611132565b906109c3565b939091611f05565b9050611f4c611f46611f41611132565b610162565b91610162565b115f611eff565b50611f5d5f610381565b611935565b5061193b611f78611f71610fff565b8d90612872565b90506118f8565b9050611f9a611f94611f8f610e72565b610162565b91610162565b115f6118f2565b5060a051611fbe611fb8611fb3610fcd565b610162565b91610162565b10156118eb565b50611fcf5f610381565b6118bc565b50611941611871611fe3610eed565b915050611853565b611ff45f610381565b611817565b61200b9150612006610fff565b612872565b5f611769565b905061202c612026612021610e72565b610162565b91610162565b115f611763565b905061204e612048612043610fcd565b610162565b91610162565b10155f61175b565b5061172e611720612065610eed565b915050611702565b6116e26120795f610381565b6116ca565b905061167461165461208e610e02565b9291505061163f565b6120a05f610381565b61161e565b96956120b9886120b3610d70565b906106b9565b90816120e76120e16120dc6120cc61032a565b6120d66004610d80565b906104b7565b610162565b91610162565b1161228f575b6120f85f8d01610b8e565b5f14612239579061210891610b50565b958661213661213061212b600261212661212061032a565b91610d9f565b6106b9565b610162565b91610162565b116121ff575b611778916121c361218561215c61167a945b612156610dda565b90612872565b61217f8c61217961216b61032a565b612173610dda565b906109c3565b90612872565b90610b50565b996121bd61219d60a051612197610dee565b90612872565b916121b76121a961032a565b6121b1610dee565b906109c3565b90612872565b90610b50565b60a05260a0516121e26121dc6121d761032a565b610162565b91610162565b116121ef575b91506115e6565b6121f761032a565b60a0526121e8565b955061167a611778916121c361218561215c61222c600261222761222161032a565b91610d9f565b6106b9565b9a9450505050915061213c565b9161167a91836117789461225561224f84610162565b91610162565b115f146122765761215c61226f6121c393612185936109c3565b5b9a61214e565b50506121c361218561215c61228a5f610381565b612270565b90506122ac61229c61032a565b6122a66004610d80565b906104b7565b906120ed565b9097856122c76122c15f610381565b91610162565b115f14612460576122e36122dc838890612899565b87906126aa565b5b918a5f146123db57826123066123006122fb610c16565b610162565b91610162565b111561238f575b509061236e918161232d612327612322610cc2565b610162565b91610162565b11612376575b61234861236891612342610cff565b90612872565b9161236261235461032a565b61235c610cff565b906109c3565b90612872565b90610b50565b965b5f6115b9565b9050612368612348612386610cc2565b92915050612333565b6123d3906123cd6123be61236e9594996123b86123aa61032a565b6123b2610cae565b906109c3565b90612872565b916123c7610cae565b90612872565b90610b50565b95909161230d565b90916123f66123f06123eb610c16565b610162565b91610162565b1115612416575b506124109061240a610c7b565b90612872565b96612370565b61245990612453612444612410949861243e61243061032a565b612438610c48565b906109c3565b90612872565b9161244d610c48565b90612872565b90610b50565b94906123fd565b6124695f610381565b6122e4565b508661248961248361247e610bd8565b610162565b91610162565b11156115b3565b955061249a610b9b565b956115ac565b6124a95f610381565b61158b565b6124b95f8801610b8e565b5f146124d0576124c99082612872565b5b94611544565b6124da90826126aa565b6124ca565b506124e95f610381565b61151d565b90506114ea565b945081946114d7565b84916114be565b6125246125b79161251f60608a9e959e99979699016109b6565b6109c3565b958661253f612539612534610a07565b610162565b91610162565b115f1461269b576125b1612581612568612557610a07565b5b93612561610a33565b85916126d1565b9561257b612574610a66565b85906127dc565b90612872565b956125a060a05161259a612593610a99565b86906127dc565b90612872565b60a052916125ac610acc565b6127dc565b90612872565b94816125cb6125c55f610381565b91610162565b1180612681575b6125e9575b50506125e25f610381565b985f611460565b6125fe612603926125f861032a565b906106b9565b6104b7565b8061261d612617612612610aff565b610162565b91610162565b1161266e575b6126649061265e61263e608051612638610b3c565b90612872565b9161265861264a61032a565b612652610b3c565b906109c3565b90612872565b90610b50565b6080525f806125d7565b5061266461267a610aff565b9050612623565b508061269561268f5f610381565b91610162565b116125d2565b6125b161258161256889612558565b906126c96126ce926126ba610696565b506126c361032a565b906106b9565b6104b7565b90565b916126e4916126de610696565b506127dc565b90806126ff6126f96126f461032a565b610162565b91610162565b1015612764579061271a61271f9261271561032a565b6109c3565b612872565b8061273961273361272e61032a565b610162565b91610162565b105f14612755576127519061274c61032a565b6109c3565b5b90565b5061275f5f610381565b612752565b61278a6127909261278561277661032a565b9361277f61032a565b906109c3565b612872565b90610b50565b90565b60ff1690565b6127ad6127a86127b292610d51565b610165565b612793565b90565b6127d4906127ce6127c86127d994612793565b91610162565b9061027e565b610162565b90565b91906127e6610696565b506127ef61032a565b925b816128046127fe5f610381565b91610162565b111561286e57816128156001610d54565b166128296128236001610d54565b91610162565b14612853575b61283c8161284d92612872565b916128476001612799565b906127b5565b906127f1565b9261283c61286561284d928690612872565b9491505061282f565b5050565b6128969161288891612882610696565b506106b9565b61289061032a565b906104b7565b90565b6128a1610696565b50806128b56128af84610162565b91610162565b115f146128ca57906128c6916109c3565b5b90565b6128d3916109c3565b6128c7565b6128f3600c6128ee6128e8610184565b91610e56565b6106b9565b90565b90565b61290d612908612912926128f6565b610165565b610162565b90565b612930602861292b612925610184565b916128f9565b6106b9565b90565b90565b61294a61294561294f92612933565b610165565b610162565b90565b61296367089aaeb710be0000612936565b90565b9061296f610696565b508061298a61298461297f6128d8565b610162565b91610162565b1115612a57576129a29061299c6128d8565b906109c3565b806129bc6129b66129b1612915565b610162565b91610162565b11612a40575b612a0c612a1991612a066129d461032a565b91612a006129f16129e361032a565b6129eb612952565b906109c3565b916129fa612915565b906126aa565b90612872565b906109c3565b612a14610e02565b612872565b9080612a2d612a2784610162565b91610162565b115f14612a3957505b90565b9050612a36565b50612a19612a0c612a4f612915565b9150506129c2565b5090565b612a776102bc612a72612a6c610184565b91610d16565b6106b9565b90565b90612a83610696565b5081612a9e612a98612a93612a5b565b610162565b91610162565b1115612ad45790612acb612ad192612ac6612ab7612a5b565b93612ac0612a5b565b906109c3565b612872565b90610b50565b90565b5090565b612afb90612ae4610696565b50612aed61039d565b612af56104d9565b91612afe565b90565b9190612b08610696565b5082612b1c612b1683610162565b91610162565b10612b43575081612b35612b2f83610162565b91610162565b11612b3e575090565b905090565b9150509056fea264697066735822122073d3fa991f4c8788d89d368435a3b0fcc9a35067f8b02a6744f8f4bdc90d5a0f64736f6c634300081e0033","linkReferences":{}},"methodIdentifiers":{"BPS()":"249d39e9","MAX_FEE()":"bc063e1a","MIN_FEE()":"76c7a3c7","WAD()":"6a146024","afterInitialize(uint256,uint256)":"837aef47","afterSwap((bool,uint256,uint256,uint256,uint256,uint256))":"c2babb57","getName()":"17d7de7c","slots(uint256)":"387dd9e9"},"id":2}