{"abi":[{"type":"function","name":"BPS","inputs":[],"outputs":[{"name":"","type":"uint256","internalType":"uint256"}],"stateMutability":"view"},{"type":"function","name":"MAX_FEE","inputs":[],"outputs":[{"name":"","type":"uint256","internalType":"uint256"}],"stateMutability":"view"},{"type":"function","name":"MIN_FEE","inputs":[],"outputs":[{"name":"","type":"uint256","internalType":"uint256"}],"stateMutability":"view"},{"type":"function","name":"WAD","inputs":[],"outputs":[{"name":"","type":"uint256","internalType":"uint256"}],"stateMutability":"view"},{"type":"function","name":"afterInitialize","inputs":[{"name":"initialX","type":"uint256","internalType":"uint256"},{"name":"initialY","type":"uint256","internalType":"uint256"}],"outputs":[{"name":"","type":"uint256","internalType":"uint256"},{"name":"","type":"uint256","internalType":"uint256"}],"stateMutability":"nonpayable"},{"type":"function","name":"afterSwap","inputs":[{"name":"trade","type":"tuple","internalType":"struct TradeInfo","components":[{"name":"isBuy","type":"bool","internalType":"bool"},{"name":"amountX","type":"uint256","internalType":"uint256"},{"name":"amountY","type":"uint256","internalType":"uint256"},{"name":"timestamp","type":"uint256","internalType":"uint256"},{"name":"reserveX","type":"uint256","internalType":"uint256"},{"name":"reserveY","type":"uint256","internalType":"uint256"}]}],"outputs":[{"name":"","type":"uint256","internalType":"uint256"},{"name":"","type":"uint256","internalType":"uint256"}],"stateMutability":"nonpayable"},{"type":"function","name":"getName","inputs":[],"outputs":[{"name":"","type":"string","internalType":"string"}],"stateMutability":"pure"},{"type":"function","name":"slots","inputs":[{"name":"","type":"uint256","internalType":"uint256"}],"outputs":[{"name":"","type":"uint256","internalType":"uint256"}],"stateMutability":"view"}],"bytecode":{"object":"0x608060405234601c57600e6020565b61236d61002b823961236d90f35b6026565b60405190565b5f80fdfe60806040526004361015610013575b6105a2565b61001d5f3561009c565b806317d7de7c14610097578063249d39e914610092578063387dd9e91461008d5780636a1460241461008857806376c7a3c714610083578063837aef471461007e578063bc063e1a146100795763c2babb570361000e5761056c565b610502565b610439565b6103b4565b610349565b6102d6565b6101c3565b61012a565b60e01c90565b60405190565b5f80fd5b5f80fd5b5f9103126100ba57565b6100ac565b5190565b60209181520190565b90825f9392825e0152565b601f801991011690565b61010061010960209361010e936100f7816100bf565b938480936100c3565b958691016100cc565b6100d7565b0190565b6101279160208201915f8184039101526100e1565b90565b3461015a5761013a3660046100b0565b6101566101456106a8565b61014d6100a2565b91829182610112565b0390f35b6100a8565b90565b90565b90565b61017c6101776101819261015f565b610165565b610162565b90565b610193655af3107a4000610168565b90565b61019e610184565b90565b6101aa90610162565b9052565b91906101c1905f602085019401906101a1565b565b346101f3576101d33660046100b0565b6101ef6101de610196565b6101e66100a2565b918291826101ae565b0390f35b6100a8565b61020181610162565b0361020857565b5f80fd5b90503590610219826101f8565b565b9060208282031261023457610231915f0161020c565b90565b6100ac565b634e487b7160e01b5f52603260045260245ffd5b50602090565b90565b61025f8161024d565b82101561027957610271600191610253565b910201905f90565b610239565b1c90565b90565b61029590600861029a930261027e565b610282565b90565b906102a89154610285565b90565b5f6102b58161024d565b8210156102d2576102cf916102c991610256565b9061029d565b90565b5f80fd5b34610306576103026102f16102ec36600461021b565b6102ab565b6102f96100a2565b918291826101ae565b0390f35b6100a8565b90565b61032261031d6103279261030b565b610165565b610162565b90565b61033b670de0b6b3a764000061030e565b90565b61034661032a565b90565b34610379576103593660046100b0565b61037561036461033e565b61036c6100a2565b918291826101ae565b0390f35b6100a8565b90565b61039561039061039a9261037e565b610165565b610162565b90565b6103a65f610381565b90565b6103b161039d565b90565b346103e4576103c43660046100b0565b6103e06103cf6103a9565b6103d76100a2565b918291826101ae565b0390f35b6100a8565b9190604083820312610411578061040561040e925f860161020c565b9360200161020c565b90565b6100ac565b91602061043792949361043060408201965f8301906101a1565b01906101a1565b565b3461046b5761045261044c3660046103e9565b90610818565b9061046761045e6100a2565b92839283610416565b0390f35b6100a8565b90565b61048761048261048c92610470565b610165565b610162565b90565b634e487b7160e01b5f52601260045260245ffd5b634e487b7160e01b5f52601160045260245ffd5b6104c36104c991610162565b91610162565b9081156104d4570490565b61048f565b6104f46104e461032a565b6104ee600a610473565b906104b7565b90565b6104ff6104d9565b90565b34610532576105123660046100b0565b61052e61051d6104f7565b6105256100a2565b918291826101ae565b0390f35b6100a8565b5f80fd5b908160c09103126105495790565b610537565b9060c08282031261056757610564915f0161053b565b90565b6100ac565b3461059d5761058461057f36600461054e565b611104565b906105996105906100a2565b92839283610416565b0390f35b6100a8565b5f80fd5b606090565b634e487b7160e01b5f52604160045260245ffd5b906105c9906100d7565b810190811067ffffffffffffffff8211176105e357604052565b6105ab565b906105fb6105f46100a2565b92836105bf565b565b67ffffffffffffffff811161061b576106176020916100d7565b0190565b6105ab565b9061063261062d836105fd565b6105e8565b918252565b60207f6374696f6e5f6d6f645f76313600000000000000000000000000000000000000917f646972656374696f6e616c5f736b65775f616e645f7374616c655f70726f74655f8201520152565b61068e602d610620565b9061069b60208301610637565b565b6106a5610684565b90565b6106b06105a6565b506106b961069d565b90565b5f90565b90565b6106d76106d26106dc926106c0565b610165565b610162565b90565b6106ee6106f491939293610162565b92610162565b91610700838202610162565b92818404149015171561070f57565b6104a3565b61072f600361072a610724610184565b916106c3565b6106df565b90565b1b90565b9190600861075191029161074b5f1984610732565b92610732565b9181191691161790565b61076f61076a61077492610162565b610165565b610162565b90565b90565b919061079061078b6107989361075b565b610777565b908354610736565b9055565b90565b6107b36107ae6107b89261079c565b610165565b610162565b90565b90565b6107d26107cd6107d7926107bb565b610165565b610162565b90565b90565b6107f16107ec6107f6926107da565b610165565b610162565b90565b90565b61081061080b610815926107f9565b610165565b610162565b90565b906108216106bc565b5061082a6106bc565b50610847610836610714565b6108415f5f90610256565b9061077a565b610864610852610714565b61085e5f600190610256565b9061077a565b6108826108705f610381565b61087c5f600290610256565b9061077a565b61089f61088d61032a565b6108995f600390610256565b9061077a565b6108bd6108ab5f610381565b6108b75f600490610256565b9061077a565b816108d06108ca5f610381565b91610162565b115f146109b7576108f7916108e491611f96565b5b6108f15f600590610256565b9061077a565b61091c61090a660360051c8960006107be565b6109165f600690610256565b9061077a565b610942610930670b1a2bc2ec5000006107dd565b61093c5f600790610256565b9061077a565b61096761095566071afd498d00006107fc565b6109615f600890610256565b9061077a565b6109856109735f610381565b61097f5f600990610256565b9061077a565b6109a36109915f610381565b61099d5f600a90610256565b9061077a565b6109ab610714565b906109b4610714565b90565b50506108f76109d760646109d26109cc61032a565b9161079f565b6106df565b6108e5565b356109e6816101f8565b90565b6109f86109fe91939293610162565b92610162565b8203918211610a0957565b6104a3565b90565b610a25610a20610a2a92610a0e565b610165565b610162565b90565b610a376008610a11565b90565b90565b610a51610a4c610a5692610a3a565b610165565b610162565b90565b610a6a670bcbce7f1b150000610a3d565b90565b90565b610a84610a7f610a8992610a6d565b610165565b610162565b90565b610a9d6709b6e64a8ec60000610a70565b90565b90565b610ab7610ab2610abc92610aa0565b610165565b610162565b90565b610ad0670853a0d2313c0000610aa3565b90565b90565b610aea610ae5610aef92610ad3565b610165565b610162565b90565b610b03670c7d713b49da0000610ad6565b90565b90565b610b1d610b18610b2292610b06565b610165565b610162565b90565b610b406005610b3b610b3561032a565b91610b09565b6106df565b90565b90565b610b5a610b55610b5f92610b43565b610165565b610162565b90565b610b73670dcb65bbcabd0000610b46565b90565b610b85610b8b91939293610162565b92610162565b8201809211610b9657565b6104a3565b151590565b610ba981610b9b565b03610bb057565b5f80fd5b35610bbe81610ba0565b90565b610bdc610bcc61032a565b610bd66005610b09565b906104b7565b90565b90565b610bf6610bf1610bfb92610bdf565b610165565b610162565b90565b610c1a610c0961032a565b610c14610168610be2565b906104b7565b90565b90565b610c34610c2f610c3992610c1d565b610165565b610162565b90565b610c4c666a94d74f430000610c20565b90565b90565b610c66610c61610c6b92610c4f565b610165565b610162565b90565b610c7f6701aa535d3d0c0000610c52565b90565b90565b610c99610c94610c9e92610c82565b610165565b610162565b90565b610cb2670ddd2935029d8000610c85565b90565b90565b610ccc610cc7610cd192610cb5565b610165565b610162565b90565b610ce56704b7ec32d7a20000610cb8565b90565b610d03610cf361032a565b610cfd600a610473565b906104b7565b90565b90565b610d1d610d18610d2292610d06565b610165565b610162565b90565b610d36670905438e60010000610d09565b90565b90565b610d50610d4b610d5592610d39565b610165565b610162565b90565b610d74610d6361032a565b610d6e6102bc610d3c565b906104b7565b90565b90565b610d8e610d89610d9392610d77565b610165565b610162565b90565b610da06001610d7a565b90565b90565b610dba610db5610dbf92610da3565b610165565b610162565b90565b90565b610dd9610dd4610dde92610dc2565b610165565b610162565b90565b90565b610df8610df3610dfd92610de1565b610165565b610162565b90565b610e11670dc7d83d25f68000610de4565b90565b610e25670b1a2bc2ec5000006107dd565b90565b610e43610e3361032a565b610e3d6005610b09565b906104b7565b90565b90565b610e5d610e58610e6292610e46565b610165565b610162565b90565b610e7667016345785d8a0000610e49565b90565b90565b610e90610e8b610e9592610e79565b610165565b610162565b90565b610ea96702c68af0bb140000610e7c565b90565b90565b610ec3610ebe610ec892610eac565b610165565b610162565b90565b610ee6600c610ee1610edb610184565b91610eaf565b6106df565b90565b90565b610f00610efb610f0592610ee9565b610165565b610162565b90565b610f24611a90610f1f610f19610184565b91610eec565b6106df565b90565b610f42600c610f3d610f37610184565b91610eaf565b6106df565b90565b90565b610f5c610f57610f6192610f45565b610165565b610162565b90565b610f7f60b4610f7a610f74610184565b91610f48565b6106df565b90565b90565b610f99610f94610f9e92610f82565b610165565b610162565b90565b610fbd614a38610fb8610fb2610184565b91610f85565b6106df565b90565b90565b610fd7610fd2610fdc92610fc0565b610165565b610162565b90565b610ffb61a410610ff6610ff0610184565b91610fc3565b6106df565b90565b5f90565b90565b61101961101461101e92611002565b610165565b610162565b90565b61103c605a611037611031610184565b91611005565b6106df565b90565b90565b61105661105161105b9261103f565b610165565b610162565b90565b611079601461107461106e610184565b91611042565b6106df565b90565b90565b61109361108e6110989261107c565b610165565b610162565b90565b6110b7611af46110b26110ac610184565b9161107f565b6106df565b90565b6110d560036110d06110ca610184565b916106c3565b6106df565b90565b90565b6110ef6110ea6110f4926110d8565b610165565b610162565b90565b61110160406110db565b90565b9061110d6106bc565b506111166106bc565b5061112b6111255f5f90610256565b9061029d565b61114061113a5f600190610256565b9061029d565b61115561114f5f600290610256565b9061029d565b9361116b6111655f600390610256565b9061029d565b61118061117a5f600490610256565b9061029d565b61119561118f5f600590610256565b9061029d565b6111aa6111a45f600690610256565b9061029d565b906111c06111ba5f600790610256565b9061029d565b926111d66111d05f600890610256565b9061029d565b946111ec6111e65f600990610256565b9061029d565b986112026111fc5f600a90610256565b9061029d565b9b61120f60608a016109dc565b61122161121b83610162565b91610162565b11611dee575b508b61123b6112355f610381565b91610162565b149061124960808a016109dc565b61125b6112555f610381565b91610162565b115f14611de85761128361127160a08b016109dc565b61127d60808c016109dc565b90611f96565b5b99856112986112925f610381565b91610162565b14611ddf575b6112a95f8b01610bb4565b5f14611dd857505b806112cb6112c56112c061032a565b610162565b91610162565b105f14611dc9576112e3906112de61032a565b6109e9565b5b6112ec6106bc565b50806113006112fa5f610381565b91610162565b145f14611d98575088905b61131760a08a016109dc565b6113296113235f610381565b91610162565b115f14611d8a5761135161133f60408b016109dc565b61134b60a08c016109dc565b90611f96565b5b918261136d611367611362610bc1565b610162565b91610162565b11611d7a575b8180611d58575b91611b9a575b50508061139c611396611391610d58565b610162565b91610162565b11611997575b50826113b66113b05f610381565b91610162565b115f14611989576113d26113cb898590612185565b8490611f96565b5b98896113ee6113e86113e3610e28565b610162565b91610162565b11611979575b6113fc610e65565b6114059161215e565b8961140e61032a565b611416610e65565b61141f916109e9565b6114289161215e565b61143191610b76565b978890868861143f9161215e565b611447610714565b61144f610e98565b886114599161215e565b61146291610b76565b61146a610ecb565b896114749161215e565b61147d91610b76565b90611486610f08565b906114909161215e565b61149991610b76565b826114a2610f27565b6114ab90610162565b906114b590610162565b115f1461152d91611515916119655761150f6114f66114dc876114d6610f27565b906109e9565b5b926114f06114e9610f64565b899061215e565b90610b76565b91611509611502610fa1565b918061215e565b9061215e565b90610b76565b611527611520610fdf565b879061215e565b90610b76565b916115366106bc565b5061153f610ffe565b508361155a61155461154f61032a565b610162565b91610162565b10155f14611948576115748461156e61032a565b906109e9565b926115b16001945b6115ab61159161158a611021565b839061215e565b916115a561159d61105e565b91879061215e565b9061215e565b90610b76565b936115ba6106bc565b506115c36106bc565b505f14611900576115d5818590610b76565b93816115e96115e383610162565b91610162565b115f146118f0576115f9916109e9565b5b9b5b61160461109b565b6116166116105f610381565b91610162565b1190816118ce575b506117c5575b505061166f61166a8261166461165c6116578f61164d6116476116809992610162565b91610162565b1015938490612249565b6122c6565b9d9115610b9b565b90612249565b6122c6565b9b61167a6001610d7a565b90610b76565b968b8a8961169d6116976116926110f7565b610162565b91610162565b116117a3575b61178d98956117336117699661172161179f9e9b9761170f6116fd60606117579a61177b9f9a6116f7906116e56117459c6116df5f5f90610256565b9061077a565b6116f15f600190610256565b9061077a565b016109dc565b6117095f600290610256565b9061077a565b61171b5f600390610256565b9061077a565b61172d5f600490610256565b9061077a565b61173f5f600590610256565b9061077a565b6117515f600690610256565b9061077a565b6117635f600790610256565b9061077a565b6117755f600890610256565b9061077a565b6117875f600990610256565b9061077a565b6117995f600a90610256565b9061077a565b9190565b985090929693989591946117b56110f7565b98999497939190959296996116a3565b6117da906117d59c93929c61109b565b61215e565b9a6117ed6117e787610162565b91610162565b10155f1461185e5761166a6116579b6116809361180e61166f948390610b76565b918161182261181c83610162565b91610162565b115f146118485761183961165c91611664936109e9565b5b9e8f5b505050509250611624565b505061166461165c6118595f610381565b61183a565b9061186a908b90610b76565b99818b9261188061187a84610162565b91610162565b115f146118ab576116809261166461165c6116576118a461166f9661166a966109e9565b5b9361183d565b505061166f61166a6116809261166461165c6116576118c95f610381565b6118a5565b90506118e96118e36118de6110ba565b610162565b91610162565b115f61161e565b50506118fb5f610381565b6115fa565b61190d84829e959e610b76565b9c8161192161191b83610162565b91610162565b115f1461193857611931916109e9565b5b926115fc565b50506119435f610381565b611932565b61195a61195361032a565b85906109e9565b926115b15f9461157c565b61150f6114f66119745f610381565b6114dd565b9850611983610e28565b986113f4565b6119925f610381565b6113d3565b906119ad829793976119a7610d96565b906106df565b90816119db6119d56119d06119c061032a565b6119ca6004610da6565b906104b7565b610162565b91610162565b11611b77575b6119ec5f8a01610bb4565b5f14611b1f57906119fc91610b76565b9586611a2a611a24611a1f6002611a1a611a1461032a565b91610dc5565b6106df565b610162565b91610162565b11611ae5575b90611aa8611a88611a79611a50611aae955b611a4a610e00565b9061215e565b611a7385611a6d611a5f61032a565b611a67610e00565b906109e9565b9061215e565b90610b76565b94611a82610e14565b9061215e565b91611aa2611a9461032a565b611a9c610e14565b906109e9565b9061215e565b90610b76565b9485611ac9611ac3611abe61032a565b610162565b91610162565b11611ad5575b5f6113a2565b9450611adf61032a565b94611acf565b9550611aae90611aa8611a88611a79611a50611b126002611b0d611b0761032a565b91610dc5565b6106df565b9a94955050505050611a30565b611aae929181611b37611b3183610162565b91610162565b115f14611b5b57611a79611a50611b54611a8893611aa8956109e9565b5b9a611a42565b5050611aa8611a88611a79611a50611b725f610381565b611b55565b9050611b94611b8461032a565b611b8e6004610da6565b906104b7565b906119e1565b8596919296611bb1611bab5f610381565b91610162565b115f14611d4a57611bcd611bc6828890612185565b8790611f96565b5b925f14611cc55782611bef611be9611be4610c3c565b610162565b91610162565b1115611c79575b5090611c579181611c16611c10611c0b610ce8565b610162565b91610162565b11611c60575b611c31611c5191611c2b610d25565b9061215e565b91611c4b611c3d61032a565b611c45610d25565b906109e9565b9061215e565b90610b76565b935b5f80611380565b9050611c51611c31611c70610ce8565b92915050611c1c565b611cbd90611cb7611ca8611c57959498611ca2611c9461032a565b611c9c610cd4565b906109e9565b9061215e565b91611cb1610cd4565b9061215e565b90610b76565b949091611bf6565b9091611ce0611cda611cd5610c3c565b610162565b91610162565b1115611d00575b50611cfa90611cf4610ca1565b9061215e565b93611c59565b611d4390611d3d611d2e611cfa9497611d28611d1a61032a565b611d22610c6e565b906109e9565b9061215e565b91611d37610c6e565b9061215e565b90610b76565b9390611ce7565b611d535f610381565b611bce565b5082611d73611d6d611d68610bfe565b610162565b91610162565b111561137a565b9150611d84610bc1565b91611373565b611d935f610381565b611352565b611da35f8a01610bb4565b5f14611dba57611db3908a61215e565b5b9061130b565b611dc4908a611f96565b611db4565b50611dd35f610381565b6112e4565b90506112b1565b9450899461129e565b84611284565b611e0d611e9b91611e08939e9c9995949360608c016109dc565b6109e9565b9182611e28611e22611e1d610a2d565b610162565b91610162565b115f14611f8457611e95611e86611e6d611e54611e43610a2d565b5b94611e4d610a59565b8691611fbd565b96611e67611e60610a8c565b86906120c8565b9061215e565b96611e80611e79610abf565b85906120c8565b9061215e565b9991611e90610af2565b6120c8565b9061215e565b9980611eaf611ea95f610381565b91610162565b1180611f6a575b611ecd575b5050611ec65f610381565b9a5f611227565b611f49929691611ee8611eed92611ee261032a565b906106df565b6104b7565b9081611f08611f02611efd610b25565b610162565b91610162565b11611f51575b611f23611f4391611f1d610b62565b9061215e565b91611f3d611f2f61032a565b611f37610b62565b906109e9565b9061215e565b90610b76565b935f80611ebb565b9050611f43611f23611f61610b25565b92915050611f0e565b5081611f7e611f785f610381565b91610162565b11611eb6565b611e95611e86611e6d611e5486611e44565b90611fb5611fba92611fa66106bc565b50611faf61032a565b906106df565b6104b7565b90565b91611fd091611fca6106bc565b506120c8565b9080611feb611fe5611fe061032a565b610162565b91610162565b1015612050579061200661200b9261200161032a565b6109e9565b61215e565b8061202561201f61201a61032a565b610162565b91610162565b105f146120415761203d9061203861032a565b6109e9565b5b90565b5061204b5f610381565b61203e565b61207661207c9261207161206261032a565b9361206b61032a565b906109e9565b61215e565b90610b76565b90565b60ff1690565b61209961209461209e92610d77565b610165565b61207f565b90565b6120c0906120ba6120b46120c59461207f565b91610162565b9061027e565b610162565b90565b91906120d26106bc565b506120db61032a565b925b816120f06120ea5f610381565b91610162565b111561215a57816121016001610d7a565b1661211561210f6001610d7a565b91610162565b1461213f575b612128816121399261215e565b916121336001612085565b906120a1565b906120dd565b9261212861215161213992869061215e565b9491505061211b565b5050565b612182916121749161216e6106bc565b506106df565b61217c61032a565b906104b7565b90565b61218d6106bc565b50806121a161219b84610162565b91610162565b115f146121b657906121b2916109e9565b5b90565b6121bf916109e9565b6121b3565b6121e06102bc6121db6121d5610184565b91610d3c565b6106df565b90565b90565b6121fa6121f56121ff926121e3565b610165565b610162565b90565b612213670d0b8d0508de00006121e6565b90565b90565b61222d61222861223292612216565b610165565b610162565b90565b612246670b6139a7cbd20000612219565b90565b906122526106bc565b508161226d6122676122626121c4565b610162565b91610162565b11156122c257906122af915f146122b2576122a9612289612235565b5b6122a46122956121c4565b9361229e6121c4565b906109e9565b61215e565b90610b76565b90565b6122a96122bd612202565b61228a565b5090565b6122e9906122d26106bc565b506122db61039d565b6122e36104d9565b916122ec565b90565b91906122f66106bc565b508261230a61230483610162565b91610162565b1061233157508161232361231d83610162565b91610162565b1161232c575090565b905090565b9150509056fea2646970667358221220abbb93d4a9a50a64e08ff4180cdc28f3ee75f4302720e96ab7ff7417f648a6f364736f6c634300081e0033","linkReferences":{}},"methodIdentifiers":{"BPS()":"249d39e9","MAX_FEE()":"bc063e1a","MIN_FEE()":"76c7a3c7","WAD()":"6a146024","afterInitialize(uint256,uint256)":"837aef47","afterSwap((bool,uint256,uint256,uint256,uint256,uint256))":"c2babb57","getName()":"17d7de7c","slots(uint256)":"387dd9e9"},"id":2}